:10000000F01F001015150000733B0000733B00004B
:1000100000000000000000000000000000000000E0
:10002000000000000000000000000000733B000022
:100030000000000000000000733B0000733B000064
:10004000733B0000733B0000733B0000733B0000F8
:10005000733B0000733B0000733B0000733B0000E8
:10006000733B0000733B0000733B0000733B0000D8
:10007000733B000075210000591B0000451700006C
:10008000733B0000733B0000733B0000733B0000B8
:10009000733B00006D1C0000733B0000000000007B
:1000A000733B0000733B0000733B0000733B000098
:1000B000733B00000000000000000000733B0000E4
:1000C000B47500000000001024000000240000109F
:1000D0005C03000080B588B000AFF860B9607A605A
:1000E000BB68FB61FB68BB6100237B610AE0FB69C5
:1000F0001A1DFA61BA69111DB96112681A607B692B
:1001000004337B617A697B689A42F0D3C046BD466E
:1001100008B080BD80B584B000AF786039607B687E
:10012000FB600023BB6007E0FB681A1DFA60002239
:100130001A60BB680433BB60BA683B689A42F3D369
:10014000C046BD4604B080BD80B500AF00F007F8E2
:1001500003F075FD03F00DFDC046BD4680BD80B5C2
:1001600084B000AF1A4BFB6014E0FB681A1DFA6004
:100170001B68BB60FB681A1DFA601B687B60FB682C
:100180001A1DFA601B683B603A687968BB68180002
:10019000FFF7A0FFFA680F4B9A42E6D30FE0FB6827
:1001A0001A1DFA601B687B60FB681A1DFA601B68E9
:1001B0003B603A687B6811001800FFF7ABFFFA68F4
:1001C000054B9A42EBD3C046BD4604B080BDC04645
:1001D000C0000000CC000000D4000000FFFFFFFFC3
:1001E000FFFFFFFFFFFFFFFFFFFFFFFFFFFFFFFF1F
:1001F000FFFFFFFFFFFFFFFFFFFFFFFFFFFFFFFF0F
:10020000FFFFFFFFFFFFFFFFFFFFFFFFFFFFFFFFFE
:10021000FFFFFFFFFFFFFFFFFFFFFFFFFFFFFFFFEE
:10022000FFFFFFFFFFFFFFFFFFFFFFFFFFFFFFFFDE
:10023000FFFFFFFFFFFFFFFFFFFFFFFFFFFFFFFFCE
:10024000FFFFFFFFFFFFFFFFFFFFFFFFFFFFFFFFBE
:10025000FFFFFFFFFFFFFFFFFFFFFFFFFFFFFFFFAE
:10026000FFFFFFFFFFFFFFFFFFFFFFFFFFFFFFFF9E
:10027000FFFFFFFFFFFFFFFFFFFFFFFFFFFFFFFF8E
:10028000FFFFFFFFFFFFFFFFFFFFFFFFFFFFFFFF7E
:10029000FFFFFFFFFFFFFFFFFFFFFFFFFFFFFFFF6E
:1002A000FFFFFFFFFFFFFFFFFFFFFFFFFFFFFFFF5E
:1002B000FFFFFFFFFFFFFFFFFFFFFFFFFFFFFFFF4E
:1002C000FFFFFFFFFFFFFFFFFFFFFFFFFFFFFFFF3E
:1002D000FFFFFFFFFFFFFFFFFFFFFFFFFFFFFFFF2E
:1002E000FFFFFFFFFFFFFFFFFFFFFFFFFFFFFFFF1E
:1002F000FFFFFFFFFFFFFFFFFFFFFFFFFFFFFFFF0E
:1003000070B501220321164802F0DBFD154C802157
:100310004900200003F082F963680125AB43636064
:10032000200003F088F9FA23A361636902221343D2
:10033000636163690232934363616369AB436361E1
:1003400000220021200003F0D2F900230322002123
:10035000200003F08CF963682B43636070BDC046D6
:100360000040044000C0004070B500220321104846
:1003700002F0A7FDA023DB05802109025A580825B9
:100380002A435A5000221A620A4C6368013293438E
:100390006360200003F04FF90023032200212000B6
:1003A00003F065F9044A5369AB43536170BDC0461D
:1003B0000040044000C0004000400140F0B5C64687
:1003C00000B501F0E9FFA024E40500266660A66000
:1003D000266180235B009846E6508023DB00E650D0
:1003E00080231B01E6508027BF00E6511022002128
:1003F0004E4802F066FD80252D0263590122134309
:1004000063510F320121494802F05BFD635902221A
:10041000134363510E320221444802F052FD6359E6
:100420000422134363510C320621404802F049FD77
:100430006359402213436351303A08213B4802F08C
:1004400040FD6359424613436351F03A092137484E
:1004500002F037FD63593B436351102207213348B3
:1004600002F02FFD6359802213436351E6510023AC
:1004700000220221052001F025FC00212C4803F078
:10048000D1F9C305F9D42B4C01220121200002F03F
:100490000BFF23681B0E1B06B422D205934205D026
:1004A000244802600122110002F0C6FE224C012203
:1004B0000321200002F0F8FE204B236001220321DB
:1004C000200002F0B9FE01220321184802F0F9FCD5
:1004D0001B4802F035FD01F003FD1A4802F068F9EF
:1004E00001F054FB01F0A4FB0022174B1A7080228C
:1004F00092000021154803F0B0FB002002F05CF8E8
:10050000FE2002F001F8124C200003F022FB114BF8
:100510006360236801221343236072B6AA23A36099
:10052000553BA36062B604BC9046F0BD0040044059
:10053000000006402801001038000010000055AAF5
:100540000080054000400340390100108003001086
:1005500000400040929D0C0010B501F0E5FC8021A8
:10056000C90280230D4AD150FFF7FEFE00210C4B3B
:10057000A022D205D150012002F044FE02F0CCFEB0
:10058000400901240440002002F03CFE0A2001F052
:1005900015FB200002F0C2FDFEE7C04600E100E0CE
:1005A000FC3F0000002808D16422094B1A80002279
:1005B000084B1A80084B1A7070476422044B1A804B
:1005C0000022044B1A800132034B1A70F4E7C04634
:1005D0005601001054010010390100100122044B93
:1005E0001A706332034B1A800022034B1A80704743
:1005F00060010010560100105401001010B50229CE
:1006000000D000BE0C498A4200DA0C4A0C498A42EA
:1006100000DD0C4A002B04D0012B05D00A4B1A60D8
:1006200001E00A4B1A6010BD11B20132501E824126
:10063000D0B200F079FFF6E7AEFCFFFFADFCFFFFA4
:1006400052030000530300005C0100103001001051
:1006500010B500282BD1694B1868694C23681B0C16
:10066000FF2213409900CB1859000B00C8332168B2
:10067000090A114001318A00521851005C1AA04247
:1006800034D99C1AA04243D8A023DB0501225A602A
:1006900001329A6000221A61802149005A5080215B
:1006A000C9005A50802109015A50022010BD534BF5
:1006B0001A68D3009B185800C8231B019C4660444D
:1006C0000A2105F094FA4E4C23681B0CFF221340BC
:1006D0009900CB185900AA239B00CB182168090A5E
:1006E0000A400132910089184A00C6E7A023DB05C1
:1006F00001225A6000229A601A61802149005A50F2
:100700008021C9005A50802109015A500120CDE7AB
:100710009C1AA04215D9834213D3A023DB050122E2
:100720005A6001329A6002321A6100228021490027
:100730005A508021C9005A50802109015A50032083
:10074000B4E7834216D2D418A04213D8A023DB0505
:1007500001225A6001329A6002321A614021FC3251
:10076000995000228021C9005A50802109015A5015
:1007700004209BE7D218904216D95A18904213D8F9
:10078000A023DB0501225A6001329A6002321A610D
:10079000FC32402199508021C9005A50002180220A
:1007A00012019950052081E75B18984214D9A023C3
:1007B000DB0501225A6001329A6002321A61FC3272
:1007C000402199508021C9005A50802189008022FF
:1007D00012019950062069E7A023DB0501225A6027
:1007E00000229A601A61802149005A508021C90074
:1007F0005A50802109015A50002057E7300100105B
:1008000028010010F0B589B0FFF7D8FD012001F0F4
:10081000D5F90022D74B1A70D74C013200212000A5
:1008200002F042FD23681B0E1B06B422D205934240
:1008300012D005A8D14B83600B2303710B33C37017
:100840000133837024334370273B037000F000FFB3
:100850000100CB4802F0E4FDC74B1B681B0234D5F6
:100860000122C84B1A70C44B1B685B0231D50122B0
:10087000C54B1A70C04B1B681B0D9B072DD0BE4B80
:100880001A68120D03231340C04A1370BA4B1B6839
:100890001B0326D50122BE4B1A70B74A13681B0AE8
:1008A000DBB2BC490B701368DBB2BB490B70012390
:1008B00013600024B94B1C701423B94A0021B948B5
:1008C00001F0E0FFB84B1C60DBE30022AD4B1A7077
:1008D000C9E70022AC4B1A70CCE70222AB4B1A706E
:1008E000D4E70022AA4B1A70D7E70120FFF7B0FE29
:1008F00000F002FCAD4B9B78DBB2092B10D8AB4B60
:100900005B78DBB2092B0BD9A84B9A78D2B25B7813
:10091000DBB2A749A748103003F0E0F900F07BFCF8
:10092000A24B9B78DBB2092B10D9A04B5B78DBB2D2
:10093000092B0BD89D4B9A78D2B25B78DBB29E49DB
:100940009C48103003F0CAF900F065FC974B9A7888
:10095000D2B25B78DBB299499648103003F0BEF909
:1009600000F059FC914B9B78DBB2092B13D88F4BCD
:100970005B78DBB2092B0ED88C4B9A78D2B25B78BD
:10098000DBB28F498B48103003F0A8F900228D4B61
:100990001A6000F043FC854B9B78DBB2092B0FD823
:1009A000824B5B78DBB2092B0AD9804B9A78D2B2A2
:1009B0005B78DBB284497F48103003F08FF9E5E7BC
:1009C0007A4B9B78DBB2092B0FD9784B5B78DBB283
:1009D000092B0AD8754B9A78D2B25B78DBB27B4987
:1009E0007448103003F07AF9D0E7704B9A78D2B29D
:1009F0005B78DBB276496F48103003F06FF9C5E7DA
:100A00006A4B1B79DBB2092B11D8684BDB78DBB260
:100A1000092B0CD965498A680B79DBB2C97800913A
:100A20006C496448303003F059F900F01DFC5F4B0D
:100A30001B79DBB2092B11D95C4BDB78DBB2092BBC
:100A40000CD85A498A680B79DBB2C978009162499F
:100A50005848303003F042F900F006FC53498A68E8
:100A60000B79DBB2C97800915C495248303003F011
:100A700035F900F0F9FB5A4B1A68D3009B1858005F
:100A8000C8231B019C4660440A2105F0B0F8554B71
:100A900018601D6818680A2105F0A9F80C000A21E1
:100AA000280005F0A4F8020023004F49414803F054
:100AB00015F900F0FCFB002001F00EF800F008FC36
:100AC0004A4B1B68012B01D100F07EFC374B9A7812
:100AD000D2B2304B1B78DBB29A4201D000F074FCEA
:100AE000324B5A78D2B22C4B1B78DBB29A4201D0EF
:100AF00000F06AFC2D4B1B78DBB2142B01D900F0FF
:100B000063FC1C4B1B78002B01D000F05DFC00F057
:100B100072FE0122174B1A70194802F06BFC344B1D
:100B200018600A22204B1A600022324B1A60FFF72D
:100B3000E7FB0023312B09D9FFF716FC00F044FC3A
:100B400001322D498A42FBD90133F3E70022F8E74D
:100B50000122A023DB055A60002104E00133264A6C
:100B60009342FBD90131C72901D900F033FC00239E
:100B7000F5E7C0468400001028000010E1070000DF
:100B800000400540240000102D010010000000105E
:100B90003801001025000010260000104000001051
:100BA00014010010004003402C0000104801001008
:100BB0005C6500004400001068650000746500007A
:100BC0007C6500003000001088650000946500001E
:100BD000A0650000B8650000C8650000D865000089
:100BE0003001001034010010EC65000034000010EA
:100BF0008C0000103C000010E7030000D74AD84BDF
:100C00001A60D84B1B68002B0DD1D74800F0B8FCF8
:100C1000D64802F0EFFBD64B18607822D14B1A6011
:100C20000022D44B1A60D44B1B78002B00D1D4E3A4
:100C30000023D14A13706421D04A1180D04A138016
:100C4000D04C9D31FF31200002F0E8FC0125E56029
:100C5000200002F0F0FC8022D202CB4B1A606368C5
:100C60002B436360B9E10133C84A9342FBD9013198
:100C7000C72901D80023F7E7C54B1B68012B01D01A
:100C8000FFF73EFB0023E6E0591C5118097845297F
:100C900000D0EAE0991C51180978572900D0E4E007
:100CA000D91C511808783038FA2189004143181DA1
:100CB00010180478303C642060430918581D10183F
:100CC0000478303CA000001944000919981D101840
:100CD00000783038091805A8079119000831511813
:100CE0000C78303C1900093151180978A5006419B5
:100CF000650049193039C9B2017119000B31511819
:100D00000C78303C19000C3151180978A500641991
:100D1000650049193039C9B2C17019000E31511836
:100D20000C78303C19000F3151180978A50064196E
:100D3000650049193039C9B2817019001131511853
:100D40000C78303C1900123151180978A50064194B
:100D5000650049193039C9B2417019001431511870
:100D60000C78303C1900153151180978A500641928
:100D7000650049193039C9B201701900163151188E
:100D80000978452900D085E00120824908701900C2
:100D9000183151180878303819001931511809786C
:100DA00084000019440009193039C9B27A48017029
:100DB00019001B3151180878303819001C315118AE
:100DC000097884000019440009193039C9B2734800
:100DD000017019001E315118087831285ED1303861
:100DE0006F4908701900203151180978462960D1DF
:100DF00001206C49087019002331511808783028F7
:100E00005BD10020684908702633D3181A78302A3D
:100E10006CD10022654B1A70644B1A781204B4230B
:100E2000DB051343604A12781202134360480360E3
:100E30000122012102F000FA05A800F009FC0100DE
:100E40004A4802F0EDFA4D4B1B8801339BB24C4AE5
:100E50001380C8230133632B00D9B6E0404A1268DF
:100E6000D01801784E2900D10EE701784D29F1D133
:100E7000591C511809785329ECD1991C5218127831
:100E8000472AE7D13D4B1B8801339BB23C4A138074
:100E9000C823DFE700203F49087078E70978322946
:100EA00003D102203E4908709CE703203C490870AA
:100EB00098E700203B4908709DE70878312803D166
:100EC0003038394908709FE70878322803D1303824
:100ED0003549087098E70978332903D1032032494E
:100EE000087091E70020304908708DE71A78312AA0
:100EF00003D1303A2D4B1A708EE71A78322A03D17B
:100F0000303A2A4B1A7087E71A78332A03D1303ADD
:100F1000264B1A7080E71A78342A03D1303A234BD3
:100F20001A7079E71A78352A03D1303A1F4B1A70B4
:100F300072E71A78362A03D1303A1C4B1A706BE7E5
:100F40001A78372A03D1303A184B1A7064E71A78A6
:100F5000382A2FD1303A154B1A705DE700810540D1
:100F6000580100102C0000104801001000400540FE
:100F70008C0000103C0000106001001056010010B1
:100F8000540100100040014000E100E0E7030000D0
:100F9000340000102400001025000010260000106E
:100FA000000000102D0100102C0100101001001095
:100FB000280100101B78392B03D10922254B1A7008
:100FC0002AE70022234B1A7026E700F02BFE0028A8
:100FD0000DD1214B1B78002B12D0204B1A8892B2D6
:100FE0001F4B1B889BB29A4211D2002140E61B4A3C
:100FF000138801339BB21380012000F0DFFDE8E786
:10100000174B1B8801339BB2144A1380E5E700217C
:1010100004E00133134A9342FBD90131C72901D8B7
:101020000023F7E7104B1B68012B01D0FFF79CF959
:101030000E4802F0DFF90E4B186078220D4B1A6053
:10104000CBE10A4802F0D6F9094B1860B422094BEB
:101050001A60C7E11001001039010010540100109E
:1010600056010010E7030000340000100040054066
:101070008C0000102C000010E34B1B68002B00D1EB
:1010800001E2E24B1B68002B00D100E200230022AA
:101090000221052000F016FE0021DD4802F0C2FB0F
:1010A000C305F9D4DB4800F06BFA02F093F8DA4B91
:1010B0001860DA4B1B78002B0CD1D94B1B78002B16
:1010C00008D0D54B1B68012B04D000F094FB012203
:1010D000D24B1A70CC4B1B68002B00D16EE1CE4B6B
:1010E0001B68012B08D0CF4B1B78002B01D0FFF7DA
:1010F000FCFB0020FFF7ACFA1423CB4A0021CB48BD
:1011000001F0C0FBCA4A136801331360C94B1B7856
:10111000012B16D11068052104F069FD012910D1B9
:10112000C14A5368136093685360D368936013692E
:10113000D360C14B1B68136114230021BB4801F02D
:10114000EBFBBC4B1B78022B17D1B94B18683C2129
:1011500004F04DFD022910D1B34A5368136093681F
:101160005360D36893601369D360B34B1B681361FA
:1011700014230021AD4801F0CFFBAE4B1B78032BAD
:1011800018D1AB4B18689621490004F030FD0329B3
:1011900010D1A54A5368136093685360D368936075
:1011A0001369D360A44B1B681361142300219F486B
:1011B00001F0B2FB974800F0E3F9984B1B78012B44
:1011C00000D085E0944B1B68012B00D180E01022F9
:1011D00000219A48103002F040FD994B1B68002B0B
:1011E00001D0FFF7BFFB8B4B9B78DBB2092B01D9FA
:1011F000FFF780FB874B5B78DBB2092B01D9FFF748
:1012000079FB844B9A78D2B25B78DBB28D498B48FC
:10121000103002F063FD0122894B1A60874C2200D6
:1012200010320221002000F075FC20002030102236
:10123000002102F012FD774B1B79DBB2092B01D99B
:10124000FFF7DEFB734BDB78DBB2092B01D9FFF72D
:10125000D7FB70498A680B79DBB2C97800917A496B
:101260007648303002F03AFD744C220030320621CC
:10127000002000F0CDFB10220021200002F0EDFC48
:10128000684B1B78002B01D0FFF7F5FB6A4B1D68FC
:1012900018680A2104F0ABFC0C000A21280004F0B5
:1012A000A6FC020023006949644802F017FD634A66
:1012B0000021002000F0ACFB002000F0FBFB644BA1
:1012C0001B78012B01D0FFF7F6FB012000F004FC96
:1012D000604B1B78002B71D15F4B1B78002B6AD1C0
:1012E00001255D4B1D705D4C0023802292005C49FE
:1012F000200000F029FE5B490D715B4B0B60200064
:1013000000F04CFE0400484B1A68FA23DB009A42B6
:1013100002D90022444B1A60434B5A68FA23DB007F
:101320009A4202D90022404B5A603F4B9A68FA23F6
:10133000DB009A4202D900223B4B9A603A4BDA68B2
:10134000FA23DB009A4202D90022374BDA60364B8F
:101350001A69FA23DB009A4202D90022324B1A6141
:10136000424D80220021280002F077FC324B1A689F
:101370002D490B6848688E68CF6809690391029708
:10138000019600903A49280002F0A8FC002C0DD0EC
:10139000364C200004F05EF8020021002F4800F0D7
:1013A00010FE041E02D02D4800F039FE002C02D0A1
:1013B0002A4800F051FE0022274B1A70244B1B785C
:1013C000012B01D1FFF77CFB01F0CAFE012801D1FE
:1013D000FFF7BEFB022800D110E4114B1B78002B55
:1013E00000D02EE6234802F005F8234A1060234B74
:1013F0001B68054909685B181268934200D93BE6EF
:101400000023014A13603BE02C000010280000106C
:101410000000064048010010340000108400001055
:10142000390100102D01001014010010004003408C
:101430003C000010000000103001001044000010BB
:101440003000001050650000A8650000E465000051
:101450002400001060010010400000108005001002
:10146000800300103C0100104C650000900000104B
:10147000F465000000400540880000108C0000105A
:101480001B4A1360F8E50022194B1A60F9E5194B65
:101490001A78D205B423DB051343174A1278920554
:1014A0001343164A12781205C02189030A401343D8
:1014B000134A1278D2041343124A127812021343C9
:1014C000114A127813430A4803600122002101F0F7
:1014D000B3FE0E4B1B78012B08D10D4B1B68012B63
:1014E00004D000F031FB0022084B1A70FFF734F8EB
:1014F00028000010240000102D0100100000001032
:101500003801001025000010260000108400001093
:101510003400001010B5034800F09EFFFEF71FFED8
:10152000FFF770F980841E0000B583B000280AD14F
:10153000064B00936B4699806A460621502000F0C6
:101540008FFE03B000BD0023F3E7C0460E0001008C
:1015500010B5040083070FD1642104F048FB002973
:101560000CD19131FF31200004F041FB002901D062
:10157000002002E0012000E0002010BD0120FCE777
:10158000F8B507002E4801F035FF05002D4904F09D
:101590002EFB041E31D02C4E06E00136BE60002624
:1015A00018E06E3CFF3C0136B6235B009C42F5D947
:1015B0003000FFF7CDFF0028F3D06E23FF339C42AD
:1015C000EBD96F3CFF3CEEE7204B9B5D9C420ED974
:1015D000E41A01361B2C0AD9B868FFF7B9FF0028B6
:1015E000F2D0012EF0D11C2C01D91D3CF1E70136BF
:1015F000F6B23E710134E4B2FC701249280004F0E6
:10160000F6FA0C00E1210901200004F0F0FA0D00C7
:101610003C21280004F0EBFAC9B239703C212800C3
:1016200004F0E5FA3C2104F0E2FAC9B27970E12154
:101630000901200004F0DBFAC0B2B870F8BDC04662
:101640000040054080510100B207000028660000FC
:1016500070B504008268274B9A4202D801204042AC
:1016600070BD8268244B9A4202D901204042F7E7BC
:101670000026224D03E0224B9C4666440135A368B8
:101680009D4208D22800FFF763FF0028F3D01D4BCE
:101690009C466644F2E72379013BDBB223710025C7
:1016A00000E001352379DBB29D420FD2164B5A5D23
:1016B000164B5343F618A068FFF74AFF0028F0D0F6
:1016C000012DEED1114B9C466644EAE7E378013BDD
:1016D0000E4858433618A078E1231B0158433018B0
:1016E0006278D2B213019B1A9E00801926783018B6
:1016F000B6E7C046CF07000033080000B20700007D
:101700008033E1010085E20128660000805101007C
:1017100000B583B001AA00231370507002333C213E
:10172000002001F055FB03B000BD00B583B001AA55
:101730004023137050703E3B3C21002001F048FBD9
:1017400003B000BD10B5002001F07CFB10BDFFFF11
:1017500070B5A026F605002280239B00F250134DA1
:1017600010320721280001F0ACFB802424023359F9
:101770008022134333517F3A0421280001F0A1FB5A
:1017800001220521280001F09CFB022001F0C6FE89
:10179000002001F025FA0649002001F06BFA054906
:1017A000002001F09FFA044B1C6070BD0040044013
:1017B00090D00300912B000000E100E070B505001F
:1017C000002608E02800FFF7B0FF0134A4B27F2C08
:1017D000F8D90136F6B2072E0CD830005038C0B216
:1017E000FFF796FF0020FFF793FF1020FFF790FF11
:1017F0000024ECE770BD10B5FFF7AAFF802180231D
:101800009B00A022D205D150002203E00133632BBC
:10181000FCD90132632A01D80023F8E7AE20FFF794
:1018200077FF2020FFF774FF1020FFF771FFB02033
:10183000FFF76EFFC820FFF76BFF0020FFF768FF80
:101840001020FFF765FF4020FFF762FF8120FFF7C0
:101850005FFFFF20FFF75CFFA120FFF759FFA620E5
:10186000FFF756FFA820FFF753FF3F20FFF750FF79
:10187000A420FFF74DFFD320FFF74AFF0020FFF71A
:1018800047FFD520FFF744FFF020FFF741FFD920A5
:10189000FFF73EFF2220FFF73BFFDA20FFF738FF7C
:1018A0001220FFF735FFDB20FFF732FF2020FFF784
:1018B0002FFF8D20FFF72CFF1420FFF729FFAF200B
:1018C000FFF726FF0020FFF779FF10BD10B50400D9
:1018D0005039C8B2FFF71CFF20091023184340B24B
:1018E000C0B2FFF715FF0E2020400123184340B27D
:1018F000C0B2FFF70DFF10BDF8B507000E001401D0
:10190000FFF7E4FF002506E00C4B185DFFF70DFF25
:1019100001340135EDB2072DF6D90136F1B23800A8
:10192000FFF7D4FF002506E0044B185DFFF7FDFE2E
:1019300001340135EDB2072DF6D9F8BD346600004B
:10194000F8B507000E00FFF7C1FF0024002506E0F0
:101950000C4B185DFFF7E9FE01340135EDB20F2D98
:10196000F6D90136F1B23800FFF7B0FF002506E0E6
:10197000044B185DFFF7D9FE01340135EDB20F2D90
:10198000F6D9F8BD94730000F8B506000F00940175
:10199000FFF79CFF002506E01C4B185DFFF7C5FE16
:1019A00001340135EDB20F2DF6D9791CC9B23000E2
:1019B000FFF78CFF002506E0144B185DFFF7B5FE1E
:1019C00001340135EDB20F2DF6D9B91CC9B2300082
:1019D000FFF77CFF002506E00C4B185DFFF7A5FE26
:1019E00001340135EDB20F2DF6D90337F9B23000CD
:1019F000FFF76CFF002506E0044B185DFFF795FE2E
:101A000001340135EDB20F2DF6D9F8BD246C00007C
:101A1000F8B506000C001700002507E02100300093
:101A2000FFF76AFF0836F6B20135EDB22B007A5D9A
:101A3000002A16D06F2A0BD0FB185B78432B07D0F7
:101A4000203AD2B27E2EE9D90234E4B20026E5E78C
:101A500021003000FFF774FF1036F6B20235EDB208
:101A6000E4E7F8BDF0B5DE4657464646C0B582B05D
:101A700001908A4690469B460A9F00250CE06E1C0A
:101A8000785DFFF752FE0134E4B235004445F6D3E9
:101A900053460133DBB29A46DA4505D25146019CE2
:101AA0002000FFF713FFF1E702B01CBC90469A46F6
:101AB000A346F0BD00B583B0002801D003B000BD3F
:101AC000044B00930223802200216830FFF7CAFFF5
:101AD000F4E7C0462473000010B582B0041E03D0A2
:101AE000012C0AD002B010BD084B009302234C22F7
:101AF00000213C20FFF7B6FFF2E7054B00930223DD
:101B00004C2200213C20FFF7ADFFEBE754730000AF
:101B100074730000F8B50E0017000025182407E0C4
:101B200031002000FFF730FF1034E4B20135EDB290
:101B3000042D08D87A5D203AD2B27E2CF0D9023634
:101B4000F6B20024ECE7F8BD002180239B00A02220
:101B5000D205D1507047FFFF70B50A4D280001F043
:101B600091FC04000100280001F0A6FCE30700D46A
:101B700070BD0121280001F00DFC0122024B1A70FA
:101B8000F6E7C046004005406101001010B5084C62
:101B9000200001F0D7FB0121200001F057FC0022BA
:101BA000044B1A708022D201034B1A6010BDC0464C
:101BB000004005406101001000E100E070B5040044
:101BC0000021154801F0CCFB0022144B1A70002CA8
:101BD0001CD0002C00D12A340F4D0321280001F025
:101BE000BFFB2100280001F0D5FB80246401200008
:101BF00001F0DEFC200001F0EFFC8022D201084B56
:101C00001A600121280001F021FC70BD024801F09A
:101C1000D9FB0400DDE7C04600400540610100102B
:101C200000E100E0014B1878C0B27047610100107C
:101C3000704710B50200C8177F2303405B18DB1103
:101C4000C81A8930022A08D0032A0AD0012A00D0F3
:101C500010BD0A2101F01FFEFAE70A2101F03EFE45
:101C6000F6E70A2101F07CFEF2E7FFFF70B5104CA9
:101C7000200001F005FE01000E4E3078C0B2FFF7E3
:101C8000D8FF05008021890380230B4AD150200012
:101C900001F080FD200001F0A8FD3178C9B2074BAA
:101CA0001B682A00FEF7AAFC0022054B1A7070BDC3
:101CB000000006406801001000E100E0640100102F
:101CC00069010010F0B583B001900E0015001F00EF
:101CD000224B1B78002B3BD10122204B1A70204C49
:101CE000200001F02BFD0199200001F066FD002D80
:101CF00021D01B4801F088FD002D2CD00021184870
:101D000001F090FD8305F9D5154D280001F0B8FDCF
:101D100001003000FFF78DFF04008021890380233C
:101D2000104AD150280001F035FD00220B4B1A70EB
:101D3000200003B0F0BD0C4B1E700C4B1F60012146
:101D4000200001F0F5FE80229203064B1A60D0E7D6
:101D500001246442ECE70024EAE7C0466901001070
:101D60000000064000E100E068010010640100107E
:101D700010B5FC235B00114A01E001320B00591E33
:101D8000002B02D01478032CF7D1023B002910D08D
:101D9000941C51780160FF2901D0200010BD012B57
:101DA00009DD93781B020360141DD278134303608E
:101DB000F3E70024F1E70024EFE7C046088105407F
:101DC000F0B5C64600B582B007000D000092019341
:101DD00008AB10CB1B7800283FD00268002A3CD00B
:101DE0002A799046002B3AD1002633190122414628
:101DF0004A40D2B251008A189B1879688C466344D5
:101E0000802189008B4242DCB9688B4244DC7B60D4
:101E100039680023FB60396143467B753B7DDB01FC
:101E20004046000103435BB2019803430B70012855
:101E30001AD04E70CC1C00238B70A418009B032B6F
:101E400018D0009B062B1CD029683200200001F01E
:101E5000FCFEA4193C6001201AE000BEC0E728681F
:101E600003F0F8FA0600C0E701234B70CC1C731C8A
:101E70008B70E2E751332370153B334063700234BB
:101E8000E2E74F3323702B7A63700234DCE70020E3
:101E900002B004BC9046F0BD0020F9E710B5054C37
:101EA000200001F089F88821014389B2200001F067
:101EB00072F810BD0080054010B5074C200001F0FD
:101EC0007BF88823984381B2200001F064F8012256
:101ED0005242024B1A6010BD008005406C01001098
:101EE00010B5012252420C4B1A600C4C022120000A
:101EF00001F0A0F80021200001F04DF8A1214900D7
:101F0000200001F048F880229201054B1A60054933
:101F1000200001F06DF810BD6C010010008005403C
:101F200000E100E0FF01000010B50021044801F0CD
:101F300032F8802189018023024AD15010BDC04669
:101F40000080054000E100E070B504000D001E00B7
:101F500000281DD000291BD0AB0700D000BE0B2AE3
:101F600001DD930700D000BEA26000232361E3607F
:101F700026760C220849280001F067FE002E09D0C1
:101F80000A23ED180133636025600123237570BDBA
:101F900000BEE1E70C23F4E7B473000000B583B0A2
:101FA00000290CD00B68002B09D0012301930433C6
:101FB0000093043B0322FFF703FF03B000BD00BE04
:101FC000F3E770B504001500002820D00368002B4B
:101FD0001DD000291BD063685B19802292009342B8
:101FE00017DCA268934216DCE268AA18607D00281C
:101FF00001D0FF2A11DC6360E2602A00206801F052
:1020000024FE23689C4665442560012002E000BE52
:10201000E1E7002070BD0020FCE70020FAE700287F
:1020200016D00368002B13D00369002B10D003696E
:102030009A78C1688C466244417D00290AD100210A
:102040009970D970111219715A7100230375704774
:1020500000BEECE79A70F8E7F8B5041E22D00368DA
:10206000002B1FD06568237E002B1DD02E000B3E59
:10207000032E06DD2369002B19D01A7840210A436C
:102080001A700920401B23689C466044237E002B65
:102090001AD0FE2E18DD023580239B009D4208DDFC
:1020A00000203DE000BEDDE72E000D3EE0E700BE73
:1020B000E3E700232376811C0430320001F0C9FDE0
:1020C00023680233236003E0002B01D1FE2E28DDBC
:1020D00023685A1C2260FE221A7023685F1BAB071C
:1020E00002D003239D430435276065601B4B1B68AA
:1020F000013303D0194B1B68AB421ED32A003900B1
:10210000174801F0A2FDFE2E21DD33063602FF2224
:10211000120416403343134E1E43134B1E6001201E
:10212000F8BD023D01332376011D0230320001F07B
:1021300090FD2368023B2360CAE7084B1B6803221B
:102140009343FA58094B1A60FFF7A8FED6E7064BEF
:102150001B68074A134036021E43DEE76C0100107D
:102160000081054003FF0000088105407001001058
:10217000FF00FFFF70B582B0334E300000F02AFF41
:102180000100356AADB2EC05E40D300000F030FF1F
:102190006B0627D4002523070DD52C4B1B68013374
:1021A00009D02A4B1B6803229343294A944663446F
:1021B000284A12681A6081235B001C4201D1230661
:1021C00001D5FFF779FEA3072ED580235B001C42C3
:1021D00026D01D4800F0D4FE030901201840FEF768
:1021E000E1F925E0FFF768FE1B4B1B68F824FF347C
:1021F0002C401B041B0C032B0ED001A8FFF7B8FDCD
:1022000000280BD0019B9C466044144B9C466044C4
:102210000E4B18600125BEE70025BCE70025BAE794
:102220000120FEF7BFF903E080235B001C4203D1CD
:10223000002D05D102B070BD0020FEF7B3F9F7E71D
:10224000FEF7CCF9F6E7C046008005406C010010AF
:10225000008105407001001008810540007FFABF31
:10226000F8B5DE4657464E464546E0B500AF060097
:102270008A4611005346002B34DD002934D0022356
:10228000534499469B4653460933DB08DB006A46B4
:10229000D31A9D46E846981C524601F0D6FC6B4680
:1022A0001E7001236A465370374B1B68002B04D005
:1022B00069464846984700285ED14B46142B5BDCA4
:1022C000324B1A684B460133D318314909688C46A2
:1022D00014318B420AD9881A2E4B1B689A4207D2B6
:1022E000002610E000BEC8E700BEC8E70020F3E704
:1022F000142608E0274B64461C60142603E0143BB8
:10230000244C236014265B46C3180133D318214C98
:102310002568AC19A3420BD32B78FF2BEAD00133ED
:10232000EB181C4C23609942EDD8E8D000BEE6E7DC
:10233000002804DDFF231370144B62461A60134D0E
:1023400028684B46037001304A46414601F07DFC47
:10235000544603342B689C4664442C600C4B1B6829
:1023600014339C4204D300D000BE143C074B1C60C5
:10237000064B1B6800221A70BD463CBC904699462D
:10238000A246AB46F8BDC0467401001078010010AB
:10239000800100107C01001080B500AF054B1800D3
:1023A00000F082FDA023DB05180000F0EBFAC04628
:1023B000BD4680BD0040044080B584B000AF786069
:1023C0000023FB607B68002B00DC00BE7B68012BD8
:1023D00008DC00F0B5FA031E04D100F0C7FA031EB2
:1023E00000DC00BE7B68802B05DD80237B6002E083
:1023F000FB680133FB607B685B107B607B68002BB4
:10240000F6D10C4B00225A620A4B0A4A126A0E217C
:102410008A431100FA6852000E2002400A431A62F1
:10242000044B00225A62034B01225A62C046BD4649
:1024300004B080BD0080044080B500AF054B1B6A2E
:102440005B080722134001229A4013001800BD4682
:1024500080BDC0460080044080B582B000AF786087
:102460007B68002B00DC00BE7968054803F0BCFBEC
:1024700003001800FFF7A0FFC046BD4602B080BDB4
:1024800000127A0080B500AFFFF7D6FF03001900F5
:10249000034803F0A9FB03001800BD4680BDC046F9
:1024A00000127A0080B584B000AF78607B68002BA2
:1024B00022D07B68124A934200D900BEFFF7E2FFA8
:1024C000030019000F4803F08FFB0300FB607B68DB
:1024D000FA2292005343F968180003F088FB0300C6
:1024E000BB60BB68E13BFF3BBB6002B4BB68191C2F
:1024F0000339FDDC02BC00E0C046BD4604B080BD2F
:1025000000093D0000CA9A3B80B582B000AF7860F8
:102510007B68002B00DA00BE7B68FF2B01DDFF2308
:102520007B607B68022B03DD7B68FE2213407B60AF
:1025300009497B68D8228B50074AD4230021D15007
:10254000054AD4230121D150034AD4230021D1507C
:10255000C046BD4602B080BD0080044080B582B058
:1025600000AF78600649064A8023D2587B68054848
:102570000340134380228B50C046BD4602B080BD4D
:1025800000800440FCBF1D0080B582B000AF7860C1
:102590000749074A8023D3587A6806480240D24345
:1025A000134080228B50C046BD4602B080BDC0465D
:1025B00000800440FCBF1D0080B582B000AF020067
:1025C000FB1D1A700B49FB1D1B7803221340D02200
:1025D0008B50084AD4230021D150064AD42301212C
:1025E000D150044AD4230021D150C046BD4602B088
:1025F00080BDC0460080044080B582B000AF7860E6
:102600000AE07A68FE231B01D358042213405A4281
:102610005341DAB2044B1A70034B1B78002BF0D1F4
:10262000C046BD4602B080BD8401001080B588B0B0
:1026300000AFF860B9607A603B60BB68002B00DADD
:1026400000BE3B68002B00DC00BEBA683B68D218B5
:10265000E8231B019A4200DD00BE7B68FB61BB687A
:10266000002B00DA01335B105B00C0229205944618
:102670006344BB61BB6801221A401723FB18511E3B
:102680008A411A70FB681800FFF7B6FF474B1B68BA
:10269000013300D175E0BB68002B00DA3F339B119A
:1026A0001A00424B1B689A4207D1BB6801221340B3
:1026B00003D13B680122134063D0FB68012118005D
:1026C00000F0B4F85DE01723FB181B78002B13D043
:1026D000FB691B781B021AB2BB691B881BB2FF2166
:1026E0000B401BB213431BB29AB2BB691A8017236B
:1026F000FB1800221A7024E03B68012B13DDFB69F4
:1027000001331B781B021AB2FB691B781BB21343FF
:102710001BB29AB2BB691A80FB690133FB613B684B
:10272000013B3B600DE0BB691B881BB2FF2293435A
:102730001AB2FB691B781BB213431BB29AB2BB6976
:102740001A80FB690133FB613B68013B3B60BB695D
:102750000233BB612823FB181B78002B01D07B6858
:10276000FB61BB693F2213400BD13B68002B08DDA6
:102770000E4B022252421A60FB680121180000F041
:1027800055F83B68002B9EDCBB69023BD022120649
:1027900094466344002B00DA3F339B111A00034B2D
:1027A0001A60C046BD4608B080BDC0460400001097
:1027B00080B584B000AF7860184B00221A70184BB7
:1027C000012252421A60C0235B031800FFF7C6FEC5
:1027D000042000F08DFE082000F0B6FE6420FFF714
:1027E00061FE042000F09AFEFFF74CFE03000D4A44
:1027F000944663440C49180003F0F6F90300013BCA
:10280000FB60FB68002B01DC0123FB60FA687B683E
:102810005A61C046BD4604B080BDC0468401001068
:1028200004000010D7B80500D8B8050080B582B004
:1028300000AF78600A00FB1C1A700F4B1B68013355
:102840000DD07B680D4A042199507B6806221A60DE
:102850000B4B01221A70084B012252421A60FB1CDA
:102860001B78002B03D07B681800FFF7C5FEC0461D
:10287000BD4602B080BDC04604000010E80F000055
:102880008401001080B586B000AFF860B9607A604E
:102890003B60BB68002B00DA00BE3B68002B00DC0D
:1028A00000BEBA683B68D21880235B019A4200DD03
:1028B00000BEBB68002B00DA3F339B117B61BA6816
:1028C0003B68D318013B002B00DA3F339B113B617F
:1028D000FB681800FFF790FE0E4B1B687A699A425E
:1028E00009DC0C4B1A683B699A4204DCFB68012145
:1028F0001800FFF79BFFBB68C02292059446634413
:1029000019003A687B68180001F09FF9C046BD467F
:1029100006B080BD0400001090B587B002AFF8602B
:10292000B9607A603B603C687A68B968F8680023EF
:1029300000932300FFF77AFEC046BD4605B090BD68
:1029400080B582B000AFC0231B037B60064B1B68C1
:102950007A681A407B68D31A5A1E9341DBB218007A
:10296000BD4602B080BDC04600C0034080B500AF88
:10297000034B1B691A00FF2313401800BD4680BD9E
:1029800000C0034080B582B000AF78604020FFF700
:10299000E5FDC046BD4602B080BDFFFF80B582B0F8
:1029A00000AF0200FB1D1A70FB1D1A7807491300C7
:1029B000DB009B1A9B00CB1804331B681800FFF741
:1029C000CDFDC046BD4602B080BDC0460800001027
:1029D00080B582B000AF0200FB1D1A70FFF752FDF8
:1029E00003001800BD4602B080BD80B582B000AFC4
:1029F00078607B683C229A617B6860221A60C046DE
:102A0000BD4602B080BD80B582B000AF78607B6803
:102A100038229A617B6844221A60C046BD4602B0E3
:102A200080BD80B582B000AF78607B681B681022E3
:102A300013405A425341DBB21800BD4602B080BD7C
:102A400080B582B000AF78607B685B681A00F823BD
:102A500013401800BD4602B080BDFFFF80B584B0B2
:102A600000AF786039603C23FB607B681800FFF79B
:102A7000E7FF0300582B6BD89A00444BD3181B6810
:102A80009F463B681B785A003B689B6859424B4104
:102A9000DBB213431A007B689A6059E03B689B687D
:102AA000002B0CD13B681B69002B02D021235B4219
:102AB00001E011235B42FA681340FB6048E03B6889
:102AC0005B68591C3A6851601B781A007B689A60F1
:102AD0003B689B685A1E3B689A6039E0FB6810228D
:102AE0009343FB603B68DB68591C3A68D1607A68A5
:102AF0009268D2B21A703B681B695A1E3B681A6111
:102B00003B681B69012B22DDFB6804229343FB60B9
:102B10001DE03B685B685A1E3B685A603B689B68D7
:102B20005A1C3B689A603B6801221A75FB681022A8
:102B30009343FB600CE03B6802221A7508E03B6897
:102B400003221A75FB6810229343FB6000E0C04625
:102B5000FB683C225A407B681A607B68FA689A617D
:102B6000FB681022134003D03B681B7D022B08D169
:102B70003B681B7D042B02D13B6800221A750023A1
:102B800000E001231800BD4604B080BDC073000002
:102B900080B584B000AF0200FB1D1A70BB1D0A1C7B
:102BA0001A70FB1D1A781300DB009B1A9B000B4A5E
:102BB0009B18FB60BB1D1B78012B0AD1FB681B69AE
:102BC0001433BB60C046BB681B78DBB2042BFAD061
:102BD00000E0C046BD4604B080BDC04608000010FD
:102BE00080B582B000AF0200FB1D1A70FB1D1B7880
:102BF0001800FFF7D3FEFB1D1A781C491300DB00F9
:102C00009B1A9B005B586C229A61FB1D1A7817492E
:102C10001300DB009B1A9B00CB18183300221A60AC
:102C2000FB1D1A7811491300DB009B1A9B00CB187F
:102C300008330F4A1A60FB1D1A780C491300DB0099
:102C40009B1A9B00CB18103300221A60FB1D1A78C8
:102C500006491300DB009B1A9B00CB18143300229B
:102C60001A60C046BD4602B080BDC04608000010D4
:102C7000912B000080B584B000AF02003960FB1DCD
:102C80001A70FB1D1B781800FFF7A2FE03003968BD
:102C9000180002F0ACFF0300FB60FB1D1A7810491E
:102CA0001300DB009B1A9B005B58FA6852081A61FC
:102CB000FB1D1A780A491300DB009B1A9B005A5827
:102CC000FB1D197806480B00DB005B1A9B001B58A4
:102CD0001B69F968CB1A5361C046BD4604B080BD7C
:102CE0000800001080B584B000AF02003960FB1D01
:102CF0001A70FB1D1A781300DB009B1A9B000A4A0E
:102D00009B18FB60FB681B69002B02D1FB683A68CB
:102D10009A60FB689A683B68D31A5A425341DBB207
:102D20001800BD4604B080BD0800001080B584B016
:102D300000AF02003960FB1D1A70FB1D1A781300EA
:102D4000DB009B1A9B00214A9B18FB60FB689B6879
:102D5000FA1D12780321100098473B6804221A7567
:102D6000FB683A681A61FB685B69002B04D1FB6859
:102D70001B681800FFF739FEFB689B68FA1D127884
:102D8000012110009847FB6800221A61C046FB68C9
:102D90001B681800FFF745FE031EF8D0FB689A6910
:102DA000FF231B02134004D0FB681B681800FFF7C9
:102DB0002AFEFB689B68FA1D1278042110009847D0
:102DC0003B681B7D1800BD4604B080BD08000010A4
:102DD00080B58AB000AFBA607B600F23FB18021C7D
:102DE0001A700E23FB180A1C1A701023FB18180007
:102DF00018231A00002100F030FF1023FB180E22C8
:102E0000BA1812781A701023FB18BA685A60102387
:102E1000FB187A689A60C0461023FA180F23FB1833
:102E20001B7811001800FFF781FF0300022BF3D07D
:102E30001023FB189B687A68D31A1800BD460AB0A5
:102E400080BDFFFF80B582B000AF0200FB1D1A708D
:102E5000FB1D1A7813491300DB009B1A9B0058587E
:102E6000FB1D1A780F491300DB009B1A9B00CB183F
:102E700010331B681900FFF7F1FD031E0ED1FB1D77
:102E80001A7808491300DB009B1A9B00CB18083303
:102E90001B68FA1D1278022110009847C046BD46F3
:102EA00002B080BD0800001080B582B000AF78602D
:102EB0008023DB021800FFF751FBC046BD4602B07D
:102EC00080BD80B584B000AFF8607A600B23FB183A
:102ED0000A1C1A700B23FB181B780B2B0FD97B686D
:102EE000012B0CD10B23FB181B780C3B01229A40C1
:102EF00013001A00FB681100180000F00DF80B23F6
:102F0000FB181A787B681B02190AFB689200D150E3
:102F1000C046BD4604B080BD80B582B000AF7860C9
:102F200039607B6880229B583A6812011209D243AB
:102F30001A407B6880215A50C046BD4602B080BD11
:102F400080B582B000AF78607A6880235B00FE2194
:102F5000D150094B0021180000F01DF8074A064B1C
:102F60001100180000F044F87B6800221A60C04687
:102F7000BD4602B080BDC04600800540FF01000094
:102F800080B582B000AF78607B685B68DBB2180008
:102F9000BD4602B080BD80B582B000AF78600A0047
:102FA000BB1C1A80BB1C1B88DB05DA0D7B689A6191
:102FB000C046BD4602B080BD80B582B000AF78602B
:102FC0007B689B699BB2DB05DB0D9BB21800BD469D
:102FD00002B080BD80B582B000AF78607B68DB69ED
:102FE0009BB2DB05DB0D9BB21800BD4602B080BD75
:102FF00080B582B000AF78600A00BB1C1A807B6885
:10300000DB6908221A400A4B1B681A43084B1A60F6
:10301000BB1C1B88DB05DA0D7B685A62BB1C1B8856
:10302000DB05DA0D7B685A62C046BD4602B080BD42
:103030008801001080B582B000AF786039603B68CD
:103040001A1D7B681A61C046BD4602B080BD80B5BE
:1030500082B000AF78607B68FA2292005343180078
:10306000FFF720FAC046BD4602B080BD80B584B0EF
:1030700000AF78603960124A124B1348190000F013
:10308000B8FD0300FB60FB68104A1A407B681343DD
:10309000902212011343FB60FB68094A09490A4860
:1030A00000F08CFD0A4B0A4A126904218A43110080
:1030B0003A680A431A6130BFC046BD4604B080BDBD
:1030C000008003408C0100102080034000F6FFFFC9
:1030D00000ED00E080B586B000AFF860B9607A60BE
:1030E000FA680C4B0C48190000F083FD03007B616B
:1030F000BB68DB437A691A407B6813437B617B6959
:10310000FA680449044800F059FDC046BD4606B0BF
:1031100080BDC0468C0100102080034080B582B085
:1031200000AF0200FB1D1A7000F0F6F803005BB25E
:10313000002B04DAFA235B001800FFF788FFFB1D61
:103140001B78002B01D0022300E0044B042118005F
:10315000FFF78CFFC046BD4602B080BD02200000D4
:1031600080B582B000AF174A174B1848190000F01D
:1031700040FD03007B607A6880231B01134005D06B
:103180007A6880235B00134000D000BE7A688023F9
:103190001B01134011D07A6880235B0013400CD1CF
:1031A0000B4A094B0948190000F023FD0300DB0816
:1031B000DBB203221340DBB200E0FF231800BD4660
:1031C00002B080BD008003408C01001020800340CD
:1031D0001880034080B500AF074A084B0848190023
:1031E00000F007FD0200012313405A1E9341DBB299
:1031F0001800BD4680BDC046188003408C010010F9
:103200002080034080B582B000AF0200FB1D1A7021
:10321000FB1D1B78002B02D080231B0200E0002343
:103220008022110203481A00FFF754FFC046BD4632
:1032300002B080BD0080034090B587B000AFF86059
:10324000B9607A607B68002B07DDBB68002B04DB6C
:10325000BA687B68D318052B00DD00BE00237B61B4
:1032600013E07A69BB68D3189B000C4A98187B69F5
:103270009B00FA68D3181B6809490A4C0200200019
:1032800000F09CFC7B6901337B617A697B689A4220
:10329000E7DBC046BD4607B090BDC0460480034092
:1032A0008C0100102080034090B587B000AFF8601B
:1032B000B9607A607B68002B07DDBB68002B04DBFC
:1032C000BA687B68D318052B00DD00BE00237B6144
:1032D00013E07B699B00FA68D4187A69BB68D3183D
:1032E0009B000A4A9A180A4B0A48190000F081FC10
:1032F000030023607B6901337B617A697B689A42B2
:10330000E7DBC046BD4607B090BDC0460480034021
:103310008C0100102080034080B500AF064A074BA7
:103320000748190000F065FC0300DBB25F229343FD
:10333000DBB21800BD4680BD188003408C01001030
:103340002080034080B582B000AF78608023DB002E
:103350001800FFF703F9C046BD4602B080BDFFFF6D
:1033600090B583B000AF78600A00FB1C1A707868D3
:10337000FB1C1B78072213400449054C0200200067
:1033800000F01CFCC046BD4603B090BD900100108B
:103390002440054080B582B000AF786039607B681A
:1033A0000C331A003B681B021B0A0449044800F056
:1033B00005FCC046BD4602B080BDC046900100106D
:1033C0002440054080B582B000AF78607B680C3344
:1033D0001A00064B0648190000F00BFC03001B0204
:1033E0001B0A1800BD4602B080BDC0469001001007
:1033F0002440054080B582B000AF78607B683033F0
:103400001A00054B0548190000F0F3FB03001800F3
:10341000BD4602B080BDC04690010010244005406A
:1034200080B582B000AF786039607B6830331A00B5
:103430003B680449044800F0C1FBC046BD4602B0E9
:1034400080BDC046900100102440054090B583B077
:1034500000AF78600A00FB1C1A707B6814331800F8
:10346000FB1C1B78012213400449054C020020007C
:1034700000F0A4FBC046BD4603B090BD9001001013
:103480002440054080B582B000AF78607B68183377
:103490001A00074B0748190000F0ABFB0300DBB232
:1034A00001221340DBB21800BD4602B080BDC04609
:1034B000900100102440054090B583B000AF7860C3
:1034C0000A00FB1C1A707B6820331800FB1C1B7859
:1034D000012213400449054C0200200000F06EFB5D
:1034E000C046BD4603B090BD900100102440054089
:1034F00080B582B000AF0200FB1D1A70064B064A71
:103500005268F91D09780F200140C9430A405A60EA
:10351000C046BD4602B080BD0080044080B582B088
:1035200000AF0200FB1D1A70064B064A5168FA1DD7
:1035300012780F2002400A435A60C046BD4602B0CE
:1035400080BDC0460080044080B582B000AF02005C
:10355000FB1D1A700849084A8E239B00D358FA1D98
:1035600012783F200240D2431A408E239B00CA505B
:10357000C046BD4602B080BD0080044080B582B028
:1035800000AF0200FB1D1A700849084A8E239B00F9
:10359000D258FB1D1B783F2003401A438E239B000B
:1035A000CA50C046BD4602B080BDC046008004403F
:1035B00080B582B000AF0200BB1D1A800549BB1D5B
:1035C0001B88DB04DA0C81239B00CA50C046BD4631
:1035D00002B080BD0080044080B582B000AF020020
:1035E000BB1D1A800C49BB1D1B88DB04DA0C82232F
:1035F0009B00CA500849084A82239B00D358BA1D31
:103600001288D204D20CD2431A4082239B00CA50A3
:10361000C046BD4602B080BD0080044080B582B087
:1036200000AF786039603B681800FEF797FFC0462E
:10363000BD4602B080BD80B584B000AF78607B68C5
:103640005B68FB607B6800225A607B6801229A609D
:103650007B6802225A60C0467B689B68002BFBD1C6
:103660007B68FA685A60C046BD4604B080BD90B51C
:1036700085B000AF78600C0010001900FB1C221C04
:103680001A70BB1C021C1A707B1C0A1C1A707B1C53
:103690001B785BB201229A407B1C1B785BB2023321
:1036A0005B00032199400B001343FB607B68DB6BDD
:1036B000FA68D24313407A68D363BB60FB1C0022D4
:1036C0009A567B1C1B785BB29A40BB681A43BB1CA2
:1036D00019787B1C1B785BB202335B0099400B00AE
:1036E0001A437B68DA63C046BD4605B090BD80B51D
:1036F00084B000AFF860B960FB1D1A70FB1D1B7829
:10370000012B0BD1FB685A6FBB6801210B400121D3
:1037100099400B001A43FB685A670BE0FB685B6F2C
:10372000BA6801210A40012191400A00D2431A409F
:10373000FB685A67C046BD4604B080BD80B582B004
:1037400000AF78600220FFF7FFFE80235B011800C6
:10375000FEF704FF7B6800221A607B6800225A6231
:103760007B6807221A637B680F22DA6080231A02C3
:103770007B681100180000F0BFF9054A7B68110052
:10378000180000F0C7F9C046BD4602B080BDC04673
:10379000FF7F000080B582B000AF78607B680022B8
:1037A0005A6280235B011800FEF7EEFE0220FFF74D
:1037B000E5FEC046BD4602B080BD80B582B000AF18
:1037C00078600A00FB1C1A707B68DB680E2293434A
:1037D0001A00FB1C1B785B000E210B401A437B6810
:1037E000DA60C046BD4602B080BD80B582B000AF91
:1037F00078607B68DB685B08DBB207221340DBB2D2
:103800001800BD4602B080BD80B582B000AF7860C0
:103810007B681B6801221A437B681A60C046BD465C
:1038200002B080BD80B584B000AF786039607B683D
:103830001B681A0280235B001340FB607B689B6A55
:103840005A0280239B001340FA681343FB607B6895
:103850009B681F221340FA681343FB603B68002BF0
:1038600008D07B689B685B09DBB207221340DAB2A1
:103870003B681A70FB689BB21800BD4604B080BD5F
:1038800080B582B000AF78607B685B681BB21800BF
:10389000BD4602B080BD80B582B000AF78603960AF
:1038A0003B68002B00DC00BE7B683A685343002B6A
:1038B00008DD7B683A6853432033002B00DA3F333E
:1038C0009B1107E07B683A685343203B002B00DAEA
:1038D0003F339B111800BD4602B080BD80B582B059
:1038E00000AF786039603B68002B00DC00BE7A686E
:1038F00013009B009B185B00184A944663443A6887
:103900005343002B13DD7A6813009B009B185B0068
:10391000124A944663443A6853434133FF331A00D2
:10392000A0239900100002F05FF9030012E07A680A
:1039300013009B009B185B00084A944663443A6856
:103940005343413BFF3B1A00A0239900100002F0B3
:103950004BF903001800BD4602B080BD2055FDFFA5
:1039600080B584B000AF786039603B68002B00DC24
:1039700000BE39688023D80002F036F90300FB60EE
:103980007A6813005B009B181A01D31A3A685343F4
:10399000FA685343002B10DD7A6813005B009B1814
:1039A0001A01D31A3A685343FA6853430833002B79
:1039B00000DA0F331B1119000FE07A6813005B0067
:1039C0009B181A01D31A3A685343FA685343083BC9
:1039D000002B00DA0F331B1119003B68454A534393
:1039E000FA685343CB1A002B3BDD7A6813005B0067
:1039F0009B181A01D31A3A685343FA685343002BB1
:103A000010DD7A6813005B009B181A01D31A3A681C
:103A10005343FA6853430833002B00DA0F331B116A
:103A200019000FE07A6813005B009B181A01D31A83
:103A30003A685343FA685343083B002B00DA0F33CC
:103A40001B1119003B682B4A5343FA685343CA1AA7
:103A5000FB6864214B43002B00DA01335B10D31861
:103A60003BE07A6813005B009B181A01D31A3A688E
:103A70005343FA685343002B10DD7A6813005B0050
:103A80009B181A01D31A3A685343FA685343083310
:103A9000002B00DA0F331B1119000FE07A681300B6
:103AA0005B009B181A01D31A3A685343FA685343D0
:103AB000083B002B00DA0F331B1119003B680D4A3D
:103AC0005343FA685343CA1AFB68642149424B4383
:103AD000002B00DA01335B10D318FA6864214A43E3
:103AE0001100180002F080F803001800BD4604B071
:103AF00080BDC0468FB3000080B582B000AF786053
:103B000039603B681B041A0C7B68DA61C046BD460D
:103B100002B080BD80B582B000AF786039603B688C
:103B20001B041A0C7B681A62C046BD4602B080BDF9
:103B300080B582B000AF78600A00FB1C1A70FB1CD5
:103B40001B7807221A407B685A62C046BD4602B005
:103B500080BD80B582B000AF786080231B01180063
:103B6000FEF7FCFC7B68FF225A60C046BD4602B0EF
:103B700080BD80B500AF00BEFEE7FFFF80B584B01A
:103B800000AF78600023FB6002E0FB680633FB6057
:103B90007B681B680122134003D1FB68064A9342ED
:103BA000F3DD7B681B680122134000D100BEC046D4
:103BB000BD4604B080BDC046CF03000080B584B0D0
:103BC00000AFF860B9607A603B60FB681800FFF7EF
:103BD000D5FFBB681B685A1CBB681A607B683A68D3
:103BE0001A60FB681800FFF7C9FFC046BD4604B065
:103BF00080BD80B586B000AFF860B9607A60BB6800
:103C00001B685A1CBB681A60FB681800FFF7B6FFF8
:103C1000BB681B687B617B681B683B61FB681800A5
:103C2000FFF7ACFF7B681B683B61BB681A687B6968
:103C30009A42E9D13B691800BD4606B080BD10B577
:103C400000F036FDFCF7DEFD10BD10B502F015FCEE
:103C500010BD10B502F027FC10BD10B502F031FC0C
:103C600010BD10B541180A78342A01DC002010BDBF
:103C70000B00352A06D101331A78302AFBD0002AEE
:103C8000F4D00B003024013B1A78392A01D11C7082
:103C9000F9E701321A700378302BE7D00B1A01D5FF
:103CA0000120E4E70B7801398B70F7E7F7B50A27B5
:103CB00005000C000A268B1F01937F42019B9C424A
:103CC00000D1F7BD2800310001F08EFF3B004343D7
:103CD00030355D19013C65700500EFE70EB430B575
:103CE00096B019AB10CB05003C22002107A8069323
:103CF000FFF7B3FF0A2301220A93114B00940993A3
:103D0000104B52420293069B07A801930C4B079558
:103D100000F00CFD099B04000593013B0993002B67
:103D200008DB0023079A1370200016B030BC08BCD3
:103D300003B0184707A9002001F0D8FBF4E7C046FC
:103D4000FFFFFF7F493D0000F0B54D68A3B01700AD
:103D50000E68B84A06932B0C0790099608951340F5
:103D6000934225D100232D032D0BFB702E436E3380
:103D7000002E18D169227B70083BBB70089B3A70FB
:103D8000002B06DAAC4B0325289A1360280023B0D9
:103D9000F0BD069AA94B9207F5D4069AA84B520794
:103DA000F1D4A84BEFE761223B707A70BB70F8E763
:103DB0002023079A00209A43412A00D122E20022C0
:103DC00000233000290002F0B5FA00283DD0802100
:103DD00009066B18099A1D00012316000C93002296
:103DE00000233000290002F08DFA002800D083E281
:103DF00015AA3000290001F089FC169017912E2099
:103E0000FA21159CFF3060438F4B8900C01801F0E8
:103E1000EBFE8E49021B0600002001F0B5FC20904D
:103E20002191002E13DA8A4A8A4B74421C921D9308
:103E300001252C4213D11C981D991C9A1D9B01F041
:103E400011FF64101C901D91F3E70C90C7E700224E
:103E5000814B1C921D93002E0BD03400E8E71C9878
:103E60001D99209A219B01F0FDFE20902191012CAB
:103E7000E1D116981799209A219B01F0B3FF189071
:103E80001991189819990022744B02F053FA0028DE
:103E900000D094E0189819990022714B02F0A6FA0C
:103EA000002800D09DE01898199902F0CDF97342CE
:103EB00005900D93002E00DB0D96159B0598F41AC6
:103EC00002F013FA220001F05FFC00240023189096
:103ED00019911A931B94002E00DB94E05C4A5D4B11
:103EE00000241C921D9300231E931F941C9A1D9B5B
:103EF0001C981D9900221D0014001E9A1F9B0A92F7
:103F00000B9322002B0002F013F80A9A0B9B02F08D
:103F100003F91E901F911C941D951C981D99002259
:103F20004D4B01F09FFE02000B000020474901F0BD
:103F3000FFFF0022484B01F055FF1E901F91012505
:103F40000D9C2C4200D08FE01C981D991E9A1F9B3F
:103F50000A920B931E9A1F9B0E920F9302000B0066
:103F600002F0DAF80A9A0B9B02F0D6F80E9A0F9B31
:103F700001F078FE1E901F911C981D991C9A1D9BA4
:103F800001F070FE1C901D911C9A1D9B1C981D99A0
:103F900000220A920B931E9A1F9B0E920F930A9A6D
:103FA0000B9B01F0C5FF0E9A0F9B02F0B5F80A9A21
:103FB0000B9B1E901F9164101C921D93C1E71898D3
:103FC00019990022274B01F04DFE18901991209865
:103FD00021990022234B01F005FF013E2090219101
:103FE0004FE71898199900221E4B01F0FBFE18901C
:103FF00019912098219900221A4B01F033FE0136C5
:104000002090219146E70022134B00241C921D931F
:1040100000231E931F94002E91D118981999169A77
:10402000179B02F0B5F9002800D06CE0059B013B1E
:10403000059342E7F07F00005675000024750000EC
:1040400026750000A475000084EAFFFF0000F03F21
:104050009A9999999999C93F00001440006AF840CB
:1040600080842E4100002440189A199B0A920B93D9
:104070001E9A1F9B1C981D990E920F931E9A1F9BB0
:10408000109211931A9A1B9B12921393109A119BE0
:1040900002F042F8129A139B01F0E4FD0E9A0F9B76
:1040A000109011910A980B9901F0DCFD02000B00B1
:1040B0001098119902F030F81A901B911C981D99D4
:1040C000189A199B01F0CEFD18901991189A199B16
:1040D0001898199900220A920B931A9A1B9B0E9218
:1040E0000F930A9A0B9B01F023FF0E9A0F9B02F08D
:1040F00013F80A9A0B9B1A901B9118921993012C92
:1041000000D021E789E7189A199B1698179901F0B2
:104110000FFF169017911A9A1B9B1698179901F08A
:1041200007FF16901791209A219B1698179901F076
:1041300059FE16901791169817990022C54B01F059
:1041400091FD169017911698179902F07DF8169A1E
:10415000179B04000A920B9302F0C7F802000B00B1
:104160000A980B9901F0E4FE0022BA4B01F07AFDA7
:10417000169017911698179902F066F80500002D11
:1041800000DA7EE0B44B9D4200DD7EE0002C00DAD8
:104190007FE09C4200DD82E0B04A0599914200DD5B
:1041A00083E0AF49200001F01FFD0A22059B0A9021
:1041B0005343AB49C3182800059301F015FDA94BE3
:1041C0000A9A013E5A4314190A22434354435D1983
:1041D000554304193023B91D3B700598FFF766FD60
:1041E000390020000C31FFF761FD39002800123141
:1041F000FFF75CFD3023FB740023701D3B750C9BA7
:1042000080001843C3077DD5974B289A136001237C
:104210009843C41702331C40079B2418A410612B39
:1042200009D07BDC452B00D182E0472B00D1E2E1B5
:10423000412B00D0DDE1089B18035A00000B520D02
:1042400000D1DEE0894BD31829990C68002C00D0EE
:10425000DEE00699090700D5DAE00798844961286D
:1042600000D08449551EAA4138003032FFF736FD90
:10427000089A0500804B002A00DA7B4B289A1360CD
:1042800084E57E4B013CED1879E77D4A0134AD1899
:1042900079E77A4AA418059A013A059276E7784AAE
:1042A000A418059A0132059273E7059A9A4291DDA6
:1042B0000A21100001F098FC0A235B424343059A4F
:1042C0000A909B186D4A0A2153431B191800059345
:1042D00001F08AFC04000A2040426043059B0A2149
:1042E000C018664B013658434019053001F07CFC7C
:1042F0000A9B050005936DE7002505262C007642F4
:10430000059567E7069A5F4B920700D57DE7069A09
:104310005D4B520700D578E7574B76E7079B662B36
:1043200000D189E1672B00D165E1652B00D060E108
:10433000299B1B68112B05DD2B9A113B1360112360
:10434000299A13608026299B36011B6805939D1CC2
:10435000069B1E4004D129003800FFF782FC241878
:104360007B783B70299B1B68002B03D1474B069A37
:104370001A425ED02E237B702B9B1B68002B02DD24
:104380003E237B550135002E02D0069B1B0753D5DB
:104390006A46127F6B1C7A550235002C56DA2E00C5
:1043A0002D226442FA543A4B9C420BDDFA21200044
:1043B000890001F019FC030030337B55354B6E1C2E
:1043C00058432418632C0BDD2000642101F00CFC01
:1043D00003003033BB5564235B4258430136241835
:1043E00020000A2101F000FCC0B203003033BB55AD
:1043F0000A235B4258433034B51C2018BE19707034
:10440000C4E4099B034301D113001DE7174B1BE7CD
:10441000079D2149612D00D02049551EAA410293D4
:10442000099B01900093303223003800FFF756FCBF
:104430001EE70125A0E71D006B1EFA5C302AFAD0AA
:104440003E2AF8D02E2AA3D11D00A1E72E002B2250
:10445000A8E7C04680842E413F420F009F8601009E
:10446000A08601006079FEFF5675000001FCFFFF89
:104470002875000030750000A475000040420F0050
:10448000C0BDF0FF2475000026750000080800007C
:10449000E703000018FCFFFF3875000047750000B7
:1044A000A619B51C122D03DD13252B9A113E16609B
:1044B000069A1A420FD129003800FFF7D2FB0028D4
:1044C00009D0E34301350593002B04D17B783B7081
:1044D0002E237B70C9E0059A7B19012A0CD1DA1BC7
:1044E000002A02DC01353023F1E71A78013B9A708B
:1044F000F5E71A78013BDA70DA1B002AF9DC302381
:104500003B70023B7B700E33BB70059B2A9A013BCC
:1045100002351360A9E0A619B51C122D42DD069ADA
:1045200013261A4207D131003800FFF79AFB002802
:1045300001D001340136721E3B00944217DA5A78DA
:104540001A700133DA1B9442F9DA2E223B195A70A1
:10455000299B35001B68E41805932B9B113C1C60BC
:10456000002C00D188E03E230135BB5584E059780A
:1045700019700133D91B8A42F9DC3C22BB19013B7B
:104580001A70A41B2A9B02341C602E23BB55299B46
:10459000751C1B68002B6FD02B9A13603E237B5534
:1045A000B51C69E0069A1A4207D129003800FFF7C6
:1045B00058FB002801D00134F51C3B005A781A70D2
:1045C0000133DA1B9442F9DA2E233C19637053E06D
:1045D0001D0059E0299B1B68002B01D0FFF7D6FB7B
:1045E000069A08331A4013005A425341ED1AFFF756
:1045F000CDFB672307938023069A1B011A43299B4F
:1046000006921B680593002B02DC0123299A136094
:10461000299B12211B68112B00DC591C3800FFF765
:1046200020FB299B24181B689C423ADA221D38DBA8
:10463000621C9B1A299A1360299B1E6880231B0108
:10464000002C00DB67E7624205926142721C9142D6
:1046500000DC25E7302302253B70023B7B70299B61
:104660001B680593059A2B9B1A602B9B1B68002BDC
:1046700002DD3E237B550135069B1B05AAD5069B13
:104680001B0701D5FFF782FB6B1EFA5C302A9FD017
:104690003E2A9DD02E2A01D0FFF778FB1D00FFF7A0
:1046A00075FB299A013B1360079B023B07933FE68A
:1046B00037B5184C18492200002000F0BFFF8023B6
:1046C00080225B00D2000021200000F09FFE134CEE
:1046D000134D22002900012000F0B0FF802380222A
:1046E0005B00D2000021200000F090FE0D4B1B6803
:1046F0000193022B0DDD0C4C29002200022000F05A
:104700009DFF802380225B00D2000021200000F06A
:104710007DFE37BDA001001058750000DC010010BF
:104720005A750000B075000018020010F0B5C7B04F
:104730000A920B93002205004C9B4D9E079218781D
:104740005A1C0692002802D1079847B0F0BD2528D0
:104750004ED104238022002702219C462438920057
:10476000069C069B247801332B2C65D05BD8202C2B
:1047700064D0232C65D02A2C65D13168321D0029E4
:1047800002DA012049424740160006981C780230A0
:104790000690C8430023C0170140149111932E2C9A
:1047A0000FD1069B1C782A2C5CD1336804361193F8
:1047B000069B5C7802330693119B002B62DB10236F
:1047C0001F436C2C09D1069B1C786C2C5DD15C7846
:1047D00060231F43069B023306934C2C01D0712C9F
:1047E00059D1069B1C7860231F43069B01335EE072
:1047F000079B0B9A5C1CDB179A4204DC0CD10A9BCA
:10480000079A934208D9AB68013BAB60002B06DBEB
:104810002B685A1C2A6018700794069B8FE72900A2
:1048200000F064FEF8E72D2C03D0302CA3D1174301
:1048300000E00743069393E70F43FBE764462743F3
:10484000F8E70824FBE70A22002194462200303AC8
:10485000D0B2069309289CD8604641431C78511871
:104860000133F3E70A21069B01332200303AD0B22C
:1048700006930928A0D811981C7848431218119261
:104880000133F2E7002311939BE7069B0133069364
:1048900020231F43A1E7682C24D1069B1C78682C99
:1048A00007D180235B001F43069B5C78023306938D
:1048B00004E0069B0133069380231F43672C6FDCC3
:1048C000652C00DBE7E2472C00D1E4E216DC412C4A
:1048D00000D1DAE2452C00D1DDE2002C00D159E113
:1048E0001096CCE06A2C04D140231F43069B1C7811
:1048F0007CE77A2CFAD0742CE0D1F7E7612C00D158
:10490000C3E224DC582CEBD140233B4000D1D2E160
:10491000072307369E4333000833109332687368C9
:104920000492059380233B4000D1CAE16B461B8A69
:10493000049300230593B84E3B0700D4B74EB84B01
:104940000C93FB0600D4F3E1B6490F40F0E1632C71
:1049500000D191E0642CC3D17B0600D478E2072318
:1049600007369E43330008331093326873680E9203
:104970000F933B0600D472E26B4638229B5E0E9387
:10498000DB170F930F9B002B00DB71E20E980F9942
:10499000002342428B4104920593A34E0023CFE7AC
:1049A000702C00D1BBE107DC6E2C00D1F9E000DDFA
:1049B000FCE1692CD0D093E7752C00D11DE2782C56
:1049C00000D185E1732C8BD1331D109333680C9388
:1049D000002B01D1954B0C930C9800F03BFD04008B
:1049E000FB0603D5119B984200DD1C00149B1B1B8A
:1049F000089301233B40119317D13026BB0500D407
:104A0000103E079B089F1E93DB171F93013F00D4A6
:104A1000E2E0089B089ADB43DB171340079AD218A1
:104A20000792089A501EC31A0893079B0C9E209366
:104A3000DB1721930C9BF31A9C4200DDF8E0E34363
:104A4000DB171C40079B1B190793119B002B00D100
:104A5000A4E0079B1893DB171993089B5C1E079B28
:104A6000E418189BE31A00D404E1089BD843C0174C
:104A70001840079B1B1841E0331D34681093149BAA
:104A80005E1E01233B400C930C9A079B002A10D119
:104A900030230893BB0501D420230893079B1C9364
:104AA000DB171D93079B5F1E149BFF18BB1B013E6A
:104AB00026D50B995A1C0792DA17914203DC0BD1C9
:104AC0000A9A9A4208D9AB68013BAB60002B3BDBEA
:104AD0002B685A1C2A601C700C9B002B5ED0079B15
:104AE000741E1693DB171793079BE418169BE31AA3
:104AF0002FD5F343079ADB173340D31807934DE0C4
:104B00000B9B1D9A934204DC10D10A9B1C9A934282
:104B10000CD9AB68013BAB60002B10DB2B6820216C
:104B20005A1C2A606A46521812781A7001201C9A80
:104B30001D9B002112184B411C921D93B6E72900C2
:104B4000089800F0D3FCF1E72900200000F0CEFC2B
:104B5000C2E70B9B179A934204DC0DD10A9B169A6D
:104B6000934209D9AB68013BAB60002B0DDB2B688E
:104B70005A1C2A6020221A700120169A179B0021C5
:104B800012184B4116921793B0E72900202000F02D
:104B9000ADFCF1E7069B1096013B0693109E079C27
:104BA0003AE6331D109333687A0604D5079A1A60E3
:104BB000D2175A60F2E7BA0602D5079A1A60EDE7F3
:104BC000FA0503D56A46127F1A70E7E73A06F4D56C
:104BD0006A46928B1A80E1E70B9B1F9A934204DC92
:104BE0000CD10A9B1E9A934208D9AB68013BAB607B
:104BF000002B0CDB2B685A1C2A601E7001201E9AA9
:104C00001F9B002112184B411E921F93FEE62900A4
:104C1000300000F06BFCF1E763750000A475000044
:104C20006B750000FFFDFFFF567500005C7500000E
:104C30000B9B219A934204DC0DD10A9B209A93424C
:104C400009D9AB68013BAB60002B0EDB2B685A1C0B
:104C50002A6032781A700120209A219B00211218B4
:104C60004B41013620922193E4E63078290000F090
:104C70003DFCF0E70B9B199A934204DC0DD10A9B93
:104C8000189A934209D9AB68013BAB60002B0DDB4E
:104C90002B685A1C2A6020221A700120189A199B2E
:104CA000002112184B4118921993DAE629002020AE
:104CB00000F01CFCF1E7321D10923268059304925B
:104CC00030E6FA0500D436E66A46127C049231E6F4
:104CD00040233B4017D0072307369E433300083359
:104CE0001093326873680492059380233B4010D080
:104CF0006B461B8A049300230593C74E3B0700D4E1
:104D0000C64EC74B1CE6321D1092326805930492C2
:104D1000EBE7FA05F1D56A46127C0492ECE7331D05
:104D200010933368BC4E049300230593BC4B0C9343
:104D3000079B0A980B993693DB173793369A379B64
:104D4000801A994101225242089009913A923B926D
:104D500055200022119B399638933EA950540132B8
:104D6000202AFBD18222D200174201D1012238929F
:104D7000672C00DD42E1652C08DA472C06D000DD07
:104D8000B4E0412C02D0452C00D041E13BAB039371
:104D90003AAB029338AB019339AB009320003B0050
:104DA0003EAA3CA94E9CA0471190B1E040233B4055
:104DB00017D0072307369E43330008331093326819
:104DC00073680492059380233B4010D06B461B8A86
:104DD000049300230593934E3B0700D5DEE58F4EE9
:104DE000DCE5321D1092326805930492EBE7FA0578
:104DF000F1D56A46127C0492ECE740233B401BD07D
:104E0000072307369E4333000833109332687368D4
:104E10000492059380233B4014D06B461B8A049375
:104E20000023059310237D4A3B4002D07E4B1F4058
:104E300000230C9316007BE7321D10923268059315
:104E40000492E7E7FA05EDD56A46127C0492E8E79A
:104E5000331D109333680E93DB170F9389E5FB0521
:104E600000D48FE56B4638229B181B785BB286E531
:104E70000E9A0F9B6D4E04920593BB0700D58DE5EE
:104E80006B4E7B0700D589E5A9E710231F4202D1AD
:104E90001F43033B11938022D2003A43FB0601D407
:104EA000062311932023072107363B408E43002B16
:104EB0000FD0306871683300083310931700002357
:104EC00000220492059300233C903D910C931E0018
:104ED0002EE7310008311091170030687168002208
:104EE0003C903D91002104910592EFE7612C00D1A7
:104EF0004CE7642C00D1A5E0582C00D088E00022BB
:104F00000F203EA9049C059B11921C4300D00EE18A
:104F10008023DB003B40329300D131E10023389302
:104F20003A9B002B01DD013B38933B9B002B03DDBB
:104F3000389A013BD3183893119B389A39989C18AA
:104F400000F088FA149B3B4A1B1B1B1A0C9301238D
:104F50003B4033930023174210D1002300241493C5
:104F600015940C9B5A1E149BD31A00D40FE10C9B72
:104F70000C99DB43DB170B40D21A0C921293DB1710
:104F80001393399B129C5A1C39921B781493002B53
:104F900000D01BE1339B002B13D13026BB0500D47E
:104FA000103EE3170C9F22942393013F00D431E17C
:104FB0000C9B0C9ADB43DB171340501EE418C31AFA
:104FC0000C93329B002B00D076E12600E717389B2C
:104FD0003400013B3893002B00DBBEE1F3171A9637
:104FE000119E1B93013E731C002B00DDD0E1119B31
:104FF000119ADB43DB1713401C1961E1702C00D1BF
:105000007DE719DC692C1DD000236F2C00D1B4E0A2
:10501000002311937CE7C04666750000A47500006C
:105020007C75000069750000FFFDFFFF247500001E
:105030002675000001020000752C03D0782C00D1E9
:105040005DE7E5E700243EAE049B059A1194134307
:1050500000D15DE7059B049ADB0752081A43059BC4
:105060002C925B082D93049A059B92089B071A4388
:10507000059B2E929B082F932E982F992C9A2D9B4F
:1050800012184B4119071009084319092690279156
:105090002698279912184B411906100A0843190A35
:1050A000289029912898299912184B411904100C1D
:1050B0000843190C2A902B912A982B9912184B41CE
:1050C0000021349335913498359912184B41590782
:1050D000D0080843249000210620DB082593049A79
:1050E000059B12184B41249825990C920D930A2286
:1050F000002301F0ABF90C9A0D9B121A8B411000A2
:10510000190002091B071A430B093092319330989A
:105110003199249A259B801859410A224243049BC5
:105120000490059130339B1AA35501348CE7049CFD
:105130000C9B04401C5D059B54541B079C46049B20
:1051400001321E09059B1C096346334304930594F1
:10515000D8E6049808403030985405980133460743
:105160000498C40805982643C0080496059004983E
:10517000059C11932043ECD1CAE63EAA0721F6E72D
:10518000389B119A9B1A00D4D5E6329BD3E6099B33
:10519000159A934204DC0DD1089B149A934209D9C5
:1051A000AB68013BAB60002B0BDB2B685A1C2A6001
:1051B00020221A700121149B159C00225B18544177
:1051C000CDE62900202000F091F9F3E7099B139A1E
:1051D000934204DC10D1089B129A93420CD9AB681D
:1051E000013BAB60002B10DB2B6850215A1C2A605E
:1051F0006A46521812781A700121129B139C0022E1
:105200005B18544112931394BBE62900149800F0E4
:105210006DF9F1E7099B239A934204DC0CD1089BBA
:10522000229A934208D9AB68013BAB60002B0CDBA0
:105230002B685A1C2A601E700120229A239B002191
:1052400012184B4122922393AFE62900300000F060
:105250004DF9F1E7149A3EABD05CE3173C281FD020
:105260003E2863D126001F003B9B3296013B3B93B7
:10527000002B1DDB099BBB4203DC0CD1089BB34216
:1052800009D9AB68013BAB60002B4ADB2B685A1C89
:105290002A6030221A7001230024F6186741E3E7E0
:1052A00026001F003A9B3296013B3A93002B1DDAF1
:1052B000149B329C01331493119B149A9342C9DCC2
:1052C000339B002B0ED026000C9BE717013B1B19CC
:1052D0001193119B9B1B00D47CE00C9BD843C017FF
:1052E00018402418079B1B19FFF708FC099BBB42B9
:1052F00003DC0CD1089BB34209D9AB68013BAB601E
:10530000002B09DB2B685A1C2A6030221A700123FB
:105310000024F6186741C5E72900302000F0E6F8C0
:10532000F5E72900302000F0E1F8B4E7621C329282
:10533000099A934203DBBBD1089BA342B8D9AB685F
:10534000013BAB60002B04DB2B685A1C2A601870F1
:10535000AEE7290000F0CAF8AAE7099BBB4203DCCC
:105360000CD1089BB34209D9AB68013BAB60002B61
:1053700009DB2B685A1C2A6030221A700123002492
:10538000F618674123E62900302000F0AFF8F5E772
:10539000099B1B9A934204DC0ED1089B1A9A9342F4
:1053A0000AD9AB683EAA013BAB60002B0DDB2B6832
:1053B000925D591C29601A7001201A9A1B9B0021CA
:1053C00012184B411A921B930CE6905D290000F0D5
:1053D0008DF8F1E7099BBB4203DC0CD1089BB3427B
:1053E00009D9AB68013BAB60002B09DB2B685A1C69
:1053F0002A6020221A7001220023B6185F4168E754
:105400002900202000F072F8F5E7C046F0B5C56825
:105410000124AE0710D08026B600B24207D0802605
:10542000F600B2420AD080267600B24204D1084F7C
:105430005E1E0124BE4204D92000F0BD01002300FD
:105440002431154301610160C361C5600024F3E7A5
:10545000FEFFFF00032110B5421C084218D1114C79
:105460000368114959189943214219D0DCB2411CF3
:10547000002C0BD0FF242402811C234206D0FF21E4
:1054800009040B40591E8B41C318D91C881A04E02B
:10549000431C0078002801D1981A10BD1800DCE7E1
:1054A0000430DDE780808080FFFEFEFE202310B503
:1054B0000400C2689A43E2608369826A93420CD016
:1054C00000F0F6F8E368074A1A4010231343E3603C
:1054D000A36AA3612369E3622360E268024B13407D
:1054E000E36010BDEFCFFFFFBFBFFFFFF8B5CA6895
:1054F0004F4B050013400C00CB60930602D508000B
:10550000FFF7D4FFA168E3684A1C0FDA9A050DD4AF
:1055100002225242521AA260902252021343E360C6
:1055200023685A1C22601D70E8B20BE0414A1E003D
:105530001A40022A07D00022A26080321343E3609F
:1055400001204042F8BD3C490B40802109028B42BA
:105550000AD10021200000F053FAE3689B0602D52F
:105560002000FFF7A3FFE6689023F0225B0233439D
:105570001201E360164210D1606900F0C9FF0028F3
:1055800020D073051ED5230024332361236001231B
:10559000E36192235B023343E360902212012168AE
:1055A0002669134224D0E36A8B4200D91900891B73
:1055B00017D1731CE3622360E3695A1EA260236360
:1055C0003570B1E780277F00380000F0B9F99423E7
:1055D000E2685B0233431A4320612060E761E260C6
:1055E000DBE72200300000F0FBF80028E1D0A7E75D
:1055F0004A1CE8B222600870E26A21688A4200D937
:105600001100E269891B22635B0504D40A2802D0D9
:10561000914200DA88E70023E6622660A360220058
:10562000300000F0DDF8002800D17DE788E7C046B3
:10563000FFFFF7FF8A10000010A00000F7B50D0073
:1056400001901000140000F08BF92B78722B1FD002
:10565000772B04D0612B26D10823144A01E00423C0
:1056600002220220691C03278446042601250878AB
:105670002B2810D0622813D0E260019A62611B07C8
:1056800004D502220021200000F0BAF92000FEBD5E
:1056900000230122E5E760463A4303430131E6E790
:1056A00032432B43FAE70024F0E7C04602800000B3
:1056B00070B5040005690168C26A124BC0680340F6
:1056C000E36082230340022B02D00120404270BDE0
:1056D00080235B021840FAD0914200D211008D4223
:1056E00008D10020E268084BE56213402560A06005
:1056F000E360ECE7491B2200280000F071F8002865
:10570000EFD0E2E7FFFFF7FFFFFFFEFFF7B5002353
:105710000092002204000D0000F0F4FD002806D0E5
:10572000002300200021009A136003B0F0BD6B003D
:10573000124A5B0D200029009F18002B14D1220073
:105740002B031B0B802636031E4001965B00D60FF1
:105750003343019E1B031B0B5200002E0CD02C0D5B
:1057600024051C4321001000009B054A1F60054BC7
:105770000B401A431100D8E7013FE3E702FCFFFFAB
:105780000000E03FFFFF0F8070B5002316000022ED
:1057900004000D0000F0B6FD002802D0002000211A
:1057A00070BD6A00520D0A4B921920009A4206DD24
:1057B0002222084B1A60084B18685968F0E7002A43
:1057C000ECDD064B520552082B4013431900E7E766
:1057D000FE07000094010010A8750000FFFF0F8075
:1057E000F7B5D56801900E0014005769EB0205D596
:1057F000102338001D4300F085FEA061104B1D42B0
:105800000FD0A169380000F08FFE002806DA80234F
:105810000120E26840421343E3600FE0094B1D4062
:10582000E56032000199380000F08AFE43005B0811
:10583000F61AA3699E19A6610028E8D1FEBDC046EC
:1058400010000200EFFFFDFFF7B5314EC51C3468B4
:10585000AD08002815D02900EB1C00279C460A3112
:105860000191002C0FD10C3000F070F9431C08D0CE
:1058700080239B05036045608460002F30D1306039
:105880001CE00020FEBD802223685205934224D1F3
:10589000A7686368002F25D080213A6849058A42AD
:1058A00020D17A6803339B186360BB68A360EFE77D
:1058B000634519DC80239B05236020000C30E1E761
:1058C000002F0AD19B00C01A00F040F9431CD8D029
:1058D00080239B0523606560EFE72700A468C0E78D
:1058E000B860EBE79D42E3DD019A9342E8D980225C
:1058F00020008021920522600C30AA005B1B8218D8
:105900004905033B6560A260116053609760B9E789
:105910009C01001010B5002811D080210C384905D9
:1059200001608268002A0AD013688B4207D143685D
:10593000546803331B19436093688360F1E710BD1B
:1059400010B5FFF781FF041E05D11722034900F0AF
:10595000F7FD00F0CBFD200010BDC0468D750000A6
:10596000F0B5C46889B00500A30722D0230718D476
:105970004769066900F022F8380000F0BDFD2305F4
:1059800002D53000FFF7C6FF0B4BA40DA4059C42C7
:1059900007D12022296A684600F0CCFD684600F055
:1059A000CBF83C2200212800FEF757F9002009B06F
:1059B000F0BD01204042FAE7000080AD73B5002839
:1059C00014D1040005003C260B4B1B680193019B7E
:1059D0009C420EDA30006043084BC01800F0D6F845
:1059E000002801D001256D420134F0E700F0CEF827
:1059F0000500280076BDC046B0750000A00100106B
:105A0000F7B5394BC56804000E0000921D4201D164
:105A1000022741E043691800019300F079FD071E59
:105A2000F6D1009B012B28D0022B2BD0002BEFD1DD
:105A3000002EEDDBAB0404D52368E26A9A4200D263
:105A4000E362A06986420EDBE26A2368934200D2D9
:105A50001300226919180092891A8E4203DC216B07
:105A6000421896422EDB20231D430023A662A3602A
:105A700063601E4B1D40E5600EE0200000F038F82A
:105A80003618D5E7019800F03DFDE268002805DAF8
:105A9000802301271343E3603800FEBDE16A2368D9
:105AA000994200D90B00A1695B1821695B1A920623
:105AB00003D5A26A934200DA1300834200DA03009E
:105AC000F618B5E7361AAA0701D5711AA160EA07D8
:105AD00003D5009A9B1AF31A6360009B9E1920233A
